{
  "address": "0xC345079C09AeE5d125c029f3A0d9b03f1e920Af0",
  "abi": [
    {
      "inputs": [
        {
          "internalType": "address",
          "name": "vrfCoordinatorV2",
          "type": "address"
        },
        {
          "internalType": "uint64",
          "name": "subcriptionId",
          "type": "uint64"
        },
        {
          "internalType": "bytes32",
          "name": "gasLane",
          "type": "bytes32"
        },
        {
          "internalType": "uint32",
          "name": "callbackGasLimit",
          "type": "uint32"
        },
        {
          "internalType": "string[3]",
          "name": "dogTokenUris",
          "type": "string[3]"
        },
        {
          "internalType": "uint256",
          "name": "mintFee",
          "type": "uint256"
        }
      ],
      "stateMutability": "nonpayable",
      "type": "constructor"
    },
    {
      "inputs": [
        {
          "internalType": "address",
          "name": "have",
          "type": "address"
        },
        {
          "internalType": "address",
          "name": "want",
          "type": "address"
        }
      ],
      "name": "OnlyCoordinatorCanFulfill",
      "type": "error"
    },
    {
      "inputs": [],
      "name": "RandomIPFSnft__NeedMoreETHSent",
      "type": "error"
    },
    {
      "inputs": [],
      "name": "RandomIPFSnft__RangeOutOfBounds",
      "type": "error"
    },
    {
      "inputs": [],
      "name": "RandomIPFSnft__TransferFailed",
      "type": "error"
    },
    {
      "anonymous": false,
      "inputs": [
        {
          "indexed": true,
          "internalType": "address",
          "name": "owner",
          "type": "address"
        },
        {
          "indexed": true,
          "internalType": "address",
          "name": "approved",
          "type": "address"
        },
        {
          "indexed": true,
          "internalType": "uint256",
          "name": "tokenId",
          "type": "uint256"
        }
      ],
      "name": "Approval",
      "type": "event"
    },
    {
      "anonymous": false,
      "inputs": [
        {
          "indexed": true,
          "internalType": "address",
          "name": "owner",
          "type": "address"
        },
        {
          "indexed": true,
          "internalType": "address",
          "name": "operator",
          "type": "address"
        },
        {
          "indexed": false,
          "internalType": "bool",
          "name": "approved",
          "type": "bool"
        }
      ],
      "name": "ApprovalForAll",
      "type": "event"
    },
    {
      "anonymous": false,
      "inputs": [
        {
          "indexed": false,
          "internalType": "enum RandomIPFSnft.Breed",
          "name": "dogBreed",
          "type": "uint8"
        },
        {
          "indexed": false,
          "internalType": "address",
          "name": "minter",
          "type": "address"
        }
      ],
      "name": "NftMinted",
      "type": "event"
    },
    {
      "anonymous": false,
      "inputs": [
        {
          "indexed": true,
          "internalType": "uint256",
          "name": "requestId",
          "type": "uint256"
        },
        {
          "indexed": false,
          "internalType": "address",
          "name": "requester",
          "type": "address"
        }
      ],
      "name": "NftRequested",
      "type": "event"
    },
    {
      "anonymous": false,
      "inputs": [
        {
          "indexed": true,
          "internalType": "address",
          "name": "previousOwner",
          "type": "address"
        },
        {
          "indexed": true,
          "internalType": "address",
          "name": "newOwner",
          "type": "address"
        }
      ],
      "name": "OwnershipTransferred",
      "type": "event"
    },
    {
      "anonymous": false,
      "inputs": [
        {
          "indexed": true,
          "internalType": "address",
          "name": "from",
          "type": "address"
        },
        {
          "indexed": true,
          "internalType": "address",
          "name": "to",
          "type": "address"
        },
        {
          "indexed": true,
          "internalType": "uint256",
          "name": "tokenId",
          "type": "uint256"
        }
      ],
      "name": "Transfer",
      "type": "event"
    },
    {
      "inputs": [
        {
          "internalType": "address",
          "name": "to",
          "type": "address"
        },
        {
          "internalType": "uint256",
          "name": "tokenId",
          "type": "uint256"
        }
      ],
      "name": "approve",
      "outputs": [],
      "stateMutability": "nonpayable",
      "type": "function"
    },
    {
      "inputs": [
        {
          "internalType": "address",
          "name": "owner",
          "type": "address"
        }
      ],
      "name": "balanceOf",
      "outputs": [
        {
          "internalType": "uint256",
          "name": "",
          "type": "uint256"
        }
      ],
      "stateMutability": "view",
      "type": "function"
    },
    {
      "inputs": [
        {
          "internalType": "uint256",
          "name": "tokenId",
          "type": "uint256"
        }
      ],
      "name": "getApproved",
      "outputs": [
        {
          "internalType": "address",
          "name": "",
          "type": "address"
        }
      ],
      "stateMutability": "view",
      "type": "function"
    },
    {
      "inputs": [
        {
          "internalType": "uint256",
          "name": "moddedRng",
          "type": "uint256"
        }
      ],
      "name": "getBreedFromModdedRng",
      "outputs": [
        {
          "internalType": "enum RandomIPFSnft.Breed",
          "name": "",
          "type": "uint8"
        }
      ],
      "stateMutability": "pure",
      "type": "function"
    },
    {
      "inputs": [],
      "name": "getChanceArray",
      "outputs": [
        {
          "internalType": "uint256[3]",
          "name": "",
          "type": "uint256[3]"
        }
      ],
      "stateMutability": "pure",
      "type": "function"
    },
    {
      "inputs": [
        {
          "internalType": "uint256",
          "name": "index",
          "type": "uint256"
        }
      ],
      "name": "getDogTokenUris",
      "outputs": [
        {
          "internalType": "string",
          "name": "",
          "type": "string"
        }
      ],
      "stateMutability": "view",
      "type": "function"
    },
    {
      "inputs": [],
      "name": "getMintFee",
      "outputs": [
        {
          "internalType": "uint256",
          "name": "",
          "type": "uint256"
        }
      ],
      "stateMutability": "view",
      "type": "function"
    },
    {
      "inputs": [],
      "name": "getTokenCounter",
      "outputs": [
        {
          "internalType": "uint256",
          "name": "",
          "type": "uint256"
        }
      ],
      "stateMutability": "view",
      "type": "function"
    },
    {
      "inputs": [
        {
          "internalType": "address",
          "name": "owner",
          "type": "address"
        },
        {
          "internalType": "address",
          "name": "operator",
          "type": "address"
        }
      ],
      "name": "isApprovedForAll",
      "outputs": [
        {
          "internalType": "bool",
          "name": "",
          "type": "bool"
        }
      ],
      "stateMutability": "view",
      "type": "function"
    },
    {
      "inputs": [],
      "name": "name",
      "outputs": [
        {
          "internalType": "string",
          "name": "",
          "type": "string"
        }
      ],
      "stateMutability": "view",
      "type": "function"
    },
    {
      "inputs": [],
      "name": "owner",
      "outputs": [
        {
          "internalType": "address",
          "name": "",
          "type": "address"
        }
      ],
      "stateMutability": "view",
      "type": "function"
    },
    {
      "inputs": [
        {
          "internalType": "uint256",
          "name": "tokenId",
          "type": "uint256"
        }
      ],
      "name": "ownerOf",
      "outputs": [
        {
          "internalType": "address",
          "name": "",
          "type": "address"
        }
      ],
      "stateMutability": "view",
      "type": "function"
    },
    {
      "inputs": [
        {
          "internalType": "uint256",
          "name": "requestId",
          "type": "uint256"
        },
        {
          "internalType": "uint256[]",
          "name": "randomWords",
          "type": "uint256[]"
        }
      ],
      "name": "rawFulfillRandomWords",
      "outputs": [],
      "stateMutability": "nonpayable",
      "type": "function"
    },
    {
      "inputs": [],
      "name": "renounceOwnership",
      "outputs": [],
      "stateMutability": "nonpayable",
      "type": "function"
    },
    {
      "inputs": [],
      "name": "requestNFT",
      "outputs": [
        {
          "internalType": "uint256",
          "name": "requestId",
          "type": "uint256"
        }
      ],
      "stateMutability": "payable",
      "type": "function"
    },
    {
      "inputs": [
        {
          "internalType": "uint256",
          "name": "",
          "type": "uint256"
        }
      ],
      "name": "s_requestIdToSender",
      "outputs": [
        {
          "internalType": "address",
          "name": "",
          "type": "address"
        }
      ],
      "stateMutability": "view",
      "type": "function"
    },
    {
      "inputs": [],
      "name": "s_tokenCounter",
      "outputs": [
        {
          "internalType": "uint256",
          "name": "",
          "type": "uint256"
        }
      ],
      "stateMutability": "view",
      "type": "function"
    },
    {
      "inputs": [
        {
          "internalType": "address",
          "name": "from",
          "type": "address"
        },
        {
          "internalType": "address",
          "name": "to",
          "type": "address"
        },
        {
          "internalType": "uint256",
          "name": "tokenId",
          "type": "uint256"
        }
      ],
      "name": "safeTransferFrom",
      "outputs": [],
      "stateMutability": "nonpayable",
      "type": "function"
    },
    {
      "inputs": [
        {
          "internalType": "address",
          "name": "from",
          "type": "address"
        },
        {
          "internalType": "address",
          "name": "to",
          "type": "address"
        },
        {
          "internalType": "uint256",
          "name": "tokenId",
          "type": "uint256"
        },
        {
          "internalType": "bytes",
          "name": "data",
          "type": "bytes"
        }
      ],
      "name": "safeTransferFrom",
      "outputs": [],
      "stateMutability": "nonpayable",
      "type": "function"
    },
    {
      "inputs": [
        {
          "internalType": "address",
          "name": "operator",
          "type": "address"
        },
        {
          "internalType": "bool",
          "name": "approved",
          "type": "bool"
        }
      ],
      "name": "setApprovalForAll",
      "outputs": [],
      "stateMutability": "nonpayable",
      "type": "function"
    },
    {
      "inputs": [
        {
          "internalType": "bytes4",
          "name": "interfaceId",
          "type": "bytes4"
        }
      ],
      "name": "supportsInterface",
      "outputs": [
        {
          "internalType": "bool",
          "name": "",
          "type": "bool"
        }
      ],
      "stateMutability": "view",
      "type": "function"
    },
    {
      "inputs": [],
      "name": "symbol",
      "outputs": [
        {
          "internalType": "string",
          "name": "",
          "type": "string"
        }
      ],
      "stateMutability": "view",
      "type": "function"
    },
    {
      "inputs": [
        {
          "internalType": "uint256",
          "name": "tokenId",
          "type": "uint256"
        }
      ],
      "name": "tokenURI",
      "outputs": [
        {
          "internalType": "string",
          "name": "",
          "type": "string"
        }
      ],
      "stateMutability": "view",
      "type": "function"
    },
    {
      "inputs": [
        {
          "internalType": "address",
          "name": "from",
          "type": "address"
        },
        {
          "internalType": "address",
          "name": "to",
          "type": "address"
        },
        {
          "internalType": "uint256",
          "name": "tokenId",
          "type": "uint256"
        }
      ],
      "name": "transferFrom",
      "outputs": [],
      "stateMutability": "nonpayable",
      "type": "function"
    },
    {
      "inputs": [
        {
          "internalType": "address",
          "name": "newOwner",
          "type": "address"
        }
      ],
      "name": "transferOwnership",
      "outputs": [],
      "stateMutability": "nonpayable",
      "type": "function"
    },
    {
      "inputs": [],
      "name": "withdraw",
      "outputs": [],
      "stateMutability": "nonpayable",
      "type": "function"
    }
  ],
  "transactionHash": "0x097af7ef6fe12a597e0ecf3bd5461cbb8473dae699f3e4db46d0803a3b50858d",
  "args": [
    "0x6168499c0cFfCaCD319c818142124B7A15E857ab",
    "8726",
    "0xd89b2bf150e3b9e13446986e571fb9cab24b13cea0a43ea20a6049a85cc807cc",
    "500000",
    [
      "ipfs://QmNgzMdmk2QfYcFDJru6hrzVAif8dFvJ98KijVZhqxVEPB",
      "ipfs://QmVhuk7SmSGv5k6LSh2aF3HSHpTB9NGocLmhg32yq6X1oc",
      "ipfs://QmUwk8R9A42rctULQpRqKHZbNSnnu76ibkg6JxXQhebQRj"
    ],
    "10000000000000000"
  ],
  "numDeployments": 1,
  "solcInputHash": "aebd5211c0587961fcc5b39da45ede99",
  "bytecode": "0x6101406040523480156200001257600080fd5b5060405162004303380380620043038339818101604052810190620000389190620007ff565b6040518060400160405280600f81526020017f52616e646f6d2049504653204e465400000000000000000000000000000000008152506040518060400160405280600381526020017f52494e0000000000000000000000000000000000000000000000000000000000815250878073ffffffffffffffffffffffffffffffffffffffff1660808173ffffffffffffffffffffffffffffffffffffffff1681525050508160009080519060200190620000f292919062000292565b5080600190805190602001906200010b92919062000292565b5050506200012e62000122620001c460201b60201c565b620001cc60201b60201c565b8573ffffffffffffffffffffffffffffffffffffffff1660a08173ffffffffffffffffffffffffffffffffffffffff16815250508360c081815250508467ffffffffffffffff1660e08167ffffffffffffffff16815250508263ffffffff166101008163ffffffff168152505081600a906003620001ae92919062000323565b508061012081815250505050505050506200091f565b600033905090565b6000600760009054906101000a900473ffffffffffffffffffffffffffffffffffffffff16905081600760006101000a81548173ffffffffffffffffffffffffffffffffffffffff021916908373ffffffffffffffffffffffffffffffffffffffff1602179055508173ffffffffffffffffffffffffffffffffffffffff168173ffffffffffffffffffffffffffffffffffffffff167f8be0079c531659141344cd1fd0a4f28419497f9722a3daafe3b4186f6b6457e060405160405180910390a35050565b828054620002a090620008e9565b90600052602060002090601f016020900481019282620002c4576000855562000310565b82601f10620002df57805160ff191683800117855562000310565b8280016001018555821562000310579182015b828111156200030f578251825591602001919060010190620002f2565b5b5090506200031f91906200038a565b5090565b82805482825590600052602060002090810192821562000377579160200282015b82811115620003765782518290805190602001906200036592919062000292565b509160200191906001019062000344565b5b509050620003869190620003a9565b5090565b5b80821115620003a55760008160009055506001016200038b565b5090565b5b80821115620003cd5760008181620003c39190620003d1565b50600101620003aa565b5090565b508054620003df90620008e9565b6000825580601f10620003f3575062000414565b601f0160209004906000526020600020908101906200041391906200038a565b5b50565b6000604051905090565b600080fd5b600080fd5b600073ffffffffffffffffffffffffffffffffffffffff82169050919050565b600062000458826200042b565b9050919050565b6200046a816200044b565b81146200047657600080fd5b50565b6000815190506200048a816200045f565b92915050565b600067ffffffffffffffff82169050919050565b620004af8162000490565b8114620004bb57600080fd5b50565b600081519050620004cf81620004a4565b92915050565b6000819050919050565b620004ea81620004d5565b8114620004f657600080fd5b50565b6000815190506200050a81620004df565b92915050565b600063ffffffff82169050919050565b6200052b8162000510565b81146200053757600080fd5b50565b6000815190506200054b8162000520565b92915050565b600080fd5b6000601f19601f8301169050919050565b7f4e487b7100000000000000000000000000000000000000000000000000000000600052604160045260246000fd5b620005a18262000556565b810181811067ffffffffffffffff82111715620005c357620005c262000567565b5b80604052505050565b6000620005d862000417565b9050620005e6828262000596565b919050565b600067ffffffffffffffff82111562000609576200060862000567565b5b602082029050919050565b600080fd5b600080fd5b600067ffffffffffffffff8211156200063c576200063b62000567565b5b620006478262000556565b9050602081019050919050565b60005b838110156200067457808201518184015260208101905062000657565b8381111562000684576000848401525b50505050565b6000620006a16200069b846200061e565b620005cc565b905082815260208101848484011115620006c057620006bf62000619565b5b620006cd84828562000654565b509392505050565b600082601f830112620006ed57620006ec62000551565b5b8151620006ff8482602086016200068a565b91505092915050565b60006200071f6200071984620005eb565b620005cc565b905080602084028301858111156200073c576200073b62000614565b5b835b818110156200078a57805167ffffffffffffffff81111562000765576200076462000551565b5b808601620007748982620006d5565b855260208501945050506020810190506200073e565b5050509392505050565b600082601f830112620007ac57620007ab62000551565b5b6003620007bb84828562000708565b91505092915050565b6000819050919050565b620007d981620007c4565b8114620007e557600080fd5b50565b600081519050620007f981620007ce565b92915050565b60008060008060008060c087890312156200081f576200081e62000421565b5b60006200082f89828a0162000479565b96505060206200084289828a01620004be565b95505060406200085589828a01620004f9565b94505060606200086889828a016200053a565b935050608087015167ffffffffffffffff8111156200088c576200088b62000426565b5b6200089a89828a0162000794565b92505060a0620008ad89828a01620007e8565b9150509295509295509295565b7f4e487b7100000000000000000000000000000000000000000000000000000000600052602260045260246000fd5b600060028204905060018216806200090257607f821691505b60208210811415620009195762000918620008ba565b5b50919050565b60805160a05160c05160e05161010051610120516139866200097d60003960008181610d760152610d9e01526000610e7801526000610e5501526000610e3401526000610df801526000818161091d015261097101526139866000f3fe6080604052600436106101815760003560e01c806370a08231116100d1578063a22cb4651161008a578063b88d4fde11610064578063b88d4fde14610577578063c87b56dd146105a0578063e985e9c5146105dd578063f2fde38b1461061a57610181565b8063a22cb465146104d4578063a36f573b146104fd578063a51cccf31461053a57610181565b806370a08231146103e1578063715018a61461041e5780637a5caab3146104355780637abd25d1146104605780638da5cb5b1461047e57806395d89b41146104a957610181565b806323b872dd1161013e57806342842e0e1161011857806342842e0e146103255780635dacf5f41461034e5780636352211e146103795780636e02007d146103b657610181565b806323b872dd146102a85780633af25975146102d15780633ccfd60b1461030e57610181565b806301ffc9a71461018657806306fdde03146101c3578063081812fc146101ee578063095ea7b31461022b5780630b21a83b146102545780631fe543e31461027f575b600080fd5b34801561019257600080fd5b506101ad60048036038101906101a89190612534565b610643565b6040516101ba919061257c565b60405180910390f35b3480156101cf57600080fd5b506101d8610725565b6040516101e59190612630565b60405180910390f35b3480156101fa57600080fd5b5061021560048036038101906102109190612688565b6107b7565b60405161022291906126f6565b60405180910390f35b34801561023757600080fd5b50610252600480360381019061024d919061273d565b6107fd565b005b34801561026057600080fd5b50610269610915565b604051610276919061278c565b60405180910390f35b34801561028b57600080fd5b506102a660048036038101906102a191906128ef565b61091b565b005b3480156102b457600080fd5b506102cf60048036038101906102ca919061294b565b6109db565b005b3480156102dd57600080fd5b506102f860048036038101906102f39190612688565b610a3b565b6040516103059190612630565b60405180910390f35b34801561031a57600080fd5b50610323610aeb565b005b34801561033157600080fd5b5061034c6004803603810190610347919061294b565b610b9f565b005b34801561035a57600080fd5b50610363610bbf565b6040516103709190612a49565b60405180910390f35b34801561038557600080fd5b506103a0600480360381019061039b9190612688565b610bea565b6040516103ad91906126f6565b60405180910390f35b3480156103c257600080fd5b506103cb610c9c565b6040516103d8919061278c565b60405180910390f35b3480156103ed57600080fd5b5061040860048036038101906104039190612a64565b610ca6565b604051610415919061278c565b60405180910390f35b34801561042a57600080fd5b50610433610d5e565b005b34801561044157600080fd5b5061044a610d72565b604051610457919061278c565b60405180910390f35b610468610d9a565b604051610475919061278c565b60405180910390f35b34801561048a57600080fd5b50610493610f9a565b6040516104a091906126f6565b60405180910390f35b3480156104b557600080fd5b506104be610fc4565b6040516104cb9190612630565b60405180910390f35b3480156104e057600080fd5b506104fb60048036038101906104f69190612abd565b611056565b005b34801561050957600080fd5b50610524600480360381019061051f9190612688565b61106c565b60405161053191906126f6565b60405180910390f35b34801561054657600080fd5b50610561600480360381019061055c9190612688565b61109f565b60405161056e9190612b74565b60405180910390f35b34801561058357600080fd5b5061059e60048036038101906105999190612c44565b611181565b005b3480156105ac57600080fd5b506105c760048036038101906105c29190612688565b6111e3565b6040516105d49190612630565b60405180910390f35b3480156105e957600080fd5b5061060460048036038101906105ff9190612cc7565b6112f6565b604051610611919061257c565b60405180910390f35b34801561062657600080fd5b50610641600480360381019061063c9190612a64565b61138a565b005b60007f80ac58cd000000000000000000000000000000000000000000000000000000007bffffffffffffffffffffffffffffffffffffffffffffffffffffffff1916827bffffffffffffffffffffffffffffffffffffffffffffffffffffffff1916148061070e57507f5b5e139f000000000000000000000000000000000000000000000000000000007bffffffffffffffffffffffffffffffffffffffffffffffffffffffff1916827bffffffffffffffffffffffffffffffffffffffffffffffffffffffff1916145b8061071e575061071d8261140e565b5b9050919050565b60606000805461073490612d36565b80601f016020809104026020016040519081016040528092919081815260200182805461076090612d36565b80156107ad5780601f10610782576101008083540402835291602001916107ad565b820191906000526020600020905b81548152906001019060200180831161079057829003601f168201915b5050505050905090565b60006107c282611478565b6004600083815260200190815260200160002060009054906101000a900473ffffffffffffffffffffffffffffffffffffffff169050919050565b600061080882610bea565b90508073ffffffffffffffffffffffffffffffffffffffff168373ffffffffffffffffffffffffffffffffffffffff161415610879576040517f08c379a000000000000000000000000000000000000000000000000000000000815260040161087090612dda565b60405180910390fd5b8073ffffffffffffffffffffffffffffffffffffffff166108986114c3565b73ffffffffffffffffffffffffffffffffffffffff1614806108c757506108c6816108c16114c3565b6112f6565b5b610906576040517f08c379a00000000000000000000000000000000000000000000000000000000081526004016108fd90612e6c565b60405180910390fd5b61091083836114cb565b505050565b60095481565b7f000000000000000000000000000000000000000000000000000000000000000073ffffffffffffffffffffffffffffffffffffffff163373ffffffffffffffffffffffffffffffffffffffff16146109cd57337f00000000000000000000000000000000000000000000000000000000000000006040517f1cf993f40000000000000000000000000000000000000000000000000000000081526004016109c4929190612e8c565b60405180910390fd5b6109d78282611584565b5050565b6109ec6109e66114c3565b82611723565b610a2b576040517f08c379a0000000000000000000000000000000000000000000000000000000008152600401610a2290612f27565b60405180910390fd5b610a368383836117b8565b505050565b6060600a8281548110610a5157610a50612f47565b5b906000526020600020018054610a6690612d36565b80601f0160208091040260200160405190810160405280929190818152602001828054610a9290612d36565b8015610adf5780601f10610ab457610100808354040283529160200191610adf565b820191906000526020600020905b815481529060010190602001808311610ac257829003601f168201915b50505050509050919050565b610af3611a1f565b600047905060003373ffffffffffffffffffffffffffffffffffffffff1682604051610b1e90612fa7565b60006040518083038185875af1925050503d8060008114610b5b576040519150601f19603f3d011682016040523d82523d6000602084013e610b60565b606091505b5050905080610b9b576040517f5a3857e700000000000000000000000000000000000000000000000000000000815260040160405180910390fd5b5050565b610bba83838360405180602001604052806000815250611181565b505050565b610bc7612403565b6040518060600160405280600a8152602001601e81526020016064815250905090565b6000806002600084815260200190815260200160002060009054906101000a900473ffffffffffffffffffffffffffffffffffffffff169050600073ffffffffffffffffffffffffffffffffffffffff168173ffffffffffffffffffffffffffffffffffffffff161415610c93576040517f08c379a0000000000000000000000000000000000000000000000000000000008152600401610c8a90613008565b60405180910390fd5b80915050919050565b6000600954905090565b60008073ffffffffffffffffffffffffffffffffffffffff168273ffffffffffffffffffffffffffffffffffffffff161415610d17576040517f08c379a0000000000000000000000000000000000000000000000000000000008152600401610d0e9061309a565b60405180910390fd5b600360008373ffffffffffffffffffffffffffffffffffffffff1673ffffffffffffffffffffffffffffffffffffffff168152602001908152602001600020549050919050565b610d66611a1f565b610d706000611a9d565b565b60007f0000000000000000000000000000000000000000000000000000000000000000905090565b60007f0000000000000000000000000000000000000000000000000000000000000000341015610df6576040517f2b6515fd00000000000000000000000000000000000000000000000000000000815260040160405180910390fd5b7f000000000000000000000000000000000000000000000000000000000000000073ffffffffffffffffffffffffffffffffffffffff16635d3b1d307f00000000000000000000000000000000000000000000000000000000000000007f000000000000000000000000000000000000000000000000000000000000000060037f000000000000000000000000000000000000000000000000000000000000000060016040518663ffffffff1660e01b8152600401610eb9959493929190613132565b602060405180830381600087803b158015610ed357600080fd5b505af1158015610ee7573d6000803e3d6000fd5b505050506040513d601f19601f82011682018060405250810190610f0b919061319a565b9050336008600083815260200190815260200160002060006101000a81548173ffffffffffffffffffffffffffffffffffffffff021916908373ffffffffffffffffffffffffffffffffffffffff160217905550807ff873236e6cc0ecc5be1a9a35c95ee5b8d1ac4cc7bfef0cc5060391d6cc98e26b33604051610f8f91906126f6565b60405180910390a290565b6000600760009054906101000a900473ffffffffffffffffffffffffffffffffffffffff16905090565b606060018054610fd390612d36565b80601f0160208091040260200160405190810160405280929190818152602001828054610fff90612d36565b801561104c5780601f106110215761010080835404028352916020019161104c565b820191906000526020600020905b81548152906001019060200180831161102f57829003601f168201915b5050505050905090565b6110686110616114c3565b8383611b63565b5050565b60086020528060005260406000206000915054906101000a900473ffffffffffffffffffffffffffffffffffffffff1681565b6000806000905060006110b0610bbf565b905060005b6003811015611149578285101580156110ef57508181600381106110dc576110db612f47565b5b6020020151836110ec91906131f6565b85105b156111115780600281111561110757611106612afd565b5b935050505061117c565b81816003811061112457611123612f47565b5b60200201518361113491906131f6565b925080806111419061324c565b9150506110b5565b506040517f7e4aefc500000000000000000000000000000000000000000000000000000000815260040160405180910390fd5b919050565b61119261118c6114c3565b83611723565b6111d1576040517f08c379a00000000000000000000000000000000000000000000000000000000081526004016111c890612f27565b60405180910390fd5b6111dd84848484611cd0565b50505050565b60606111ee82611478565b600060066000848152602001908152602001600020805461120e90612d36565b80601f016020809104026020016040519081016040528092919081815260200182805461123a90612d36565b80156112875780601f1061125c57610100808354040283529160200191611287565b820191906000526020600020905b81548152906001019060200180831161126a57829003601f168201915b505050505090506000611298611d2c565b90506000815114156112ae5781925050506112f1565b6000825111156112e35780826040516020016112cb9291906132d1565b604051602081830303815290604052925050506112f1565b6112ec84611d43565b925050505b919050565b6000600560008473ffffffffffffffffffffffffffffffffffffffff1673ffffffffffffffffffffffffffffffffffffffff16815260200190815260200160002060008373ffffffffffffffffffffffffffffffffffffffff1673ffffffffffffffffffffffffffffffffffffffff16815260200190815260200160002060009054906101000a900460ff16905092915050565b611392611a1f565b600073ffffffffffffffffffffffffffffffffffffffff168173ffffffffffffffffffffffffffffffffffffffff161415611402576040517f08c379a00000000000000000000000000000000000000000000000000000000081526004016113f990613367565b60405180910390fd5b61140b81611a9d565b50565b60007f01ffc9a7000000000000000000000000000000000000000000000000000000007bffffffffffffffffffffffffffffffffffffffffffffffffffffffff1916827bffffffffffffffffffffffffffffffffffffffffffffffffffffffff1916149050919050565b61148181611dab565b6114c0576040517f08c379a00000000000000000000000000000000000000000000000000000000081526004016114b790613008565b60405180910390fd5b50565b600033905090565b816004600083815260200190815260200160002060006101000a81548173ffffffffffffffffffffffffffffffffffffffff021916908373ffffffffffffffffffffffffffffffffffffffff160217905550808273ffffffffffffffffffffffffffffffffffffffff1661153e83610bea565b73ffffffffffffffffffffffffffffffffffffffff167f8c5be1e5ebec7d5bd14f71427d1e84f3dd0314c0f7b2291e5b200ac8c7c3b92560405160405180910390a45050565b60006008600084815260200190815260200160002060009054906101000a900473ffffffffffffffffffffffffffffffffffffffff1690506000600954905060006064846000815181106115db576115da612f47565b5b60200260200101516115ed91906133b6565b905060006115fa8261109f565b905060016009600082825461160f91906131f6565b925050819055506116208484611e17565b6116e283600a83600281111561163957611638612afd565b5b8154811061164a57611649612f47565b5b90600052602060002001805461165f90612d36565b80601f016020809104026020016040519081016040528092919081815260200182805461168b90612d36565b80156116d85780601f106116ad576101008083540402835291602001916116d8565b820191906000526020600020905b8154815290600101906020018083116116bb57829003601f168201915b5050505050611e35565b7f8a269f26b688e110e9cbd887d163dab35cae678fa353a0292de532c0cac1ecdc81856040516117139291906133e7565b60405180910390a1505050505050565b60008061172f83610bea565b90508073ffffffffffffffffffffffffffffffffffffffff168473ffffffffffffffffffffffffffffffffffffffff161480611771575061177081856112f6565b5b806117af57508373ffffffffffffffffffffffffffffffffffffffff16611797846107b7565b73ffffffffffffffffffffffffffffffffffffffff16145b91505092915050565b8273ffffffffffffffffffffffffffffffffffffffff166117d882610bea565b73ffffffffffffffffffffffffffffffffffffffff161461182e576040517f08c379a000000000000000000000000000000000000000000000000000000000815260040161182590613482565b60405180910390fd5b600073ffffffffffffffffffffffffffffffffffffffff168273ffffffffffffffffffffffffffffffffffffffff16141561189e576040517f08c379a000000000000000000000000000000000000000000000000000000000815260040161189590613514565b60405180910390fd5b6118a9838383611ea9565b6118b46000826114cb565b6001600360008573ffffffffffffffffffffffffffffffffffffffff1673ffffffffffffffffffffffffffffffffffffffff16815260200190815260200160002060008282546119049190613534565b925050819055506001600360008473ffffffffffffffffffffffffffffffffffffffff1673ffffffffffffffffffffffffffffffffffffffff168152602001908152602001600020600082825461195b91906131f6565b92505081905550816002600083815260200190815260200160002060006101000a81548173ffffffffffffffffffffffffffffffffffffffff021916908373ffffffffffffffffffffffffffffffffffffffff160217905550808273ffffffffffffffffffffffffffffffffffffffff168473ffffffffffffffffffffffffffffffffffffffff167fddf252ad1be2c89b69c2b068fc378daa952ba7f163c4a11628f55a4df523b3ef60405160405180910390a4611a1a838383611eae565b505050565b611a276114c3565b73ffffffffffffffffffffffffffffffffffffffff16611a45610f9a565b73ffffffffffffffffffffffffffffffffffffffff1614611a9b576040517f08c379a0000000000000000000000000000000000000000000000000000000008152600401611a92906135b4565b60405180910390fd5b565b6000600760009054906101000a900473ffffffffffffffffffffffffffffffffffffffff16905081600760006101000a81548173ffffffffffffffffffffffffffffffffffffffff021916908373ffffffffffffffffffffffffffffffffffffffff1602179055508173ffffffffffffffffffffffffffffffffffffffff168173ffffffffffffffffffffffffffffffffffffffff167f8be0079c531659141344cd1fd0a4f28419497f9722a3daafe3b4186f6b6457e060405160405180910390a35050565b8173ffffffffffffffffffffffffffffffffffffffff168373ffffffffffffffffffffffffffffffffffffffff161415611bd2576040517f08c379a0000000000000000000000000000000000000000000000000000000008152600401611bc990613620565b60405180910390fd5b80600560008573ffffffffffffffffffffffffffffffffffffffff1673ffffffffffffffffffffffffffffffffffffffff16815260200190815260200160002060008473ffffffffffffffffffffffffffffffffffffffff1673ffffffffffffffffffffffffffffffffffffffff16815260200190815260200160002060006101000a81548160ff0219169083151502179055508173ffffffffffffffffffffffffffffffffffffffff168373ffffffffffffffffffffffffffffffffffffffff167f17307eab39ab6107e8899845ad3d59bd9653f200f220920489ca2b5937696c3183604051611cc3919061257c565b60405180910390a3505050565b611cdb8484846117b8565b611ce784848484611eb3565b611d26576040517f08c379a0000000000000000000000000000000000000000000000000000000008152600401611d1d906136b2565b60405180910390fd5b50505050565b606060405180602001604052806000815250905090565b6060611d4e82611478565b6000611d58611d2c565b90506000815111611d785760405180602001604052806000815250611da3565b80611d828461204a565b604051602001611d939291906132d1565b6040516020818303038152906040525b915050919050565b60008073ffffffffffffffffffffffffffffffffffffffff166002600084815260200190815260200160002060009054906101000a900473ffffffffffffffffffffffffffffffffffffffff1673ffffffffffffffffffffffffffffffffffffffff1614159050919050565b611e318282604051806020016040528060008152506121ab565b5050565b611e3e82611dab565b611e7d576040517f08c379a0000000000000000000000000000000000000000000000000000000008152600401611e7490613744565b60405180910390fd5b80600660008481526020019081526020016000209080519060200190611ea4929190612425565b505050565b505050565b505050565b6000611ed48473ffffffffffffffffffffffffffffffffffffffff16612206565b1561203d578373ffffffffffffffffffffffffffffffffffffffff1663150b7a02611efd6114c3565b8786866040518563ffffffff1660e01b8152600401611f1f94939291906137b9565b602060405180830381600087803b158015611f3957600080fd5b505af1925050508015611f6a57506040513d601f19601f82011682018060405250810190611f67919061381a565b60015b611fed573d8060008114611f9a576040519150601f19603f3d011682016040523d82523d6000602084013e611f9f565b606091505b50600081511415611fe5576040517f08c379a0000000000000000000000000000000000000000000000000000000008152600401611fdc906136b2565b60405180910390fd5b805181602001fd5b63150b7a0260e01b7bffffffffffffffffffffffffffffffffffffffffffffffffffffffff1916817bffffffffffffffffffffffffffffffffffffffffffffffffffffffff191614915050612042565b600190505b949350505050565b60606000821415612092576040518060400160405280600181526020017f300000000000000000000000000000000000000000000000000000000000000081525090506121a6565b600082905060005b600082146120c45780806120ad9061324c565b915050600a826120bd9190613847565b915061209a565b60008167ffffffffffffffff8111156120e0576120df6127ac565b5b6040519080825280601f01601f1916602001820160405280156121125781602001600182028036833780820191505090505b5090505b6000851461219f5760018261212b9190613534565b9150600a8561213a91906133b6565b603061214691906131f6565b60f81b81838151811061215c5761215b612f47565b5b60200101907effffffffffffffffffffffffffffffffffffffffffffffffffffffffffffff1916908160001a905350600a856121989190613847565b9450612116565b8093505050505b919050565b6121b58383612229565b6121c26000848484611eb3565b612201576040517f08c379a00000000000000000000000000000000000000000000000000000000081526004016121f8906136b2565b60405180910390fd5b505050565b6000808273ffffffffffffffffffffffffffffffffffffffff163b119050919050565b600073ffffffffffffffffffffffffffffffffffffffff168273ffffffffffffffffffffffffffffffffffffffff161415612299576040517f08c379a0000000000000000000000000000000000000000000000000000000008152600401612290906138c4565b60405180910390fd5b6122a281611dab565b156122e2576040517f08c379a00000000000000000000000000000000000000000000000000000000081526004016122d990613930565b60405180910390fd5b6122ee60008383611ea9565b6001600360008473ffffffffffffffffffffffffffffffffffffffff1673ffffffffffffffffffffffffffffffffffffffff168152602001908152602001600020600082825461233e91906131f6565b92505081905550816002600083815260200190815260200160002060006101000a81548173ffffffffffffffffffffffffffffffffffffffff021916908373ffffffffffffffffffffffffffffffffffffffff160217905550808273ffffffffffffffffffffffffffffffffffffffff16600073ffffffffffffffffffffffffffffffffffffffff167fddf252ad1be2c89b69c2b068fc378daa952ba7f163c4a11628f55a4df523b3ef60405160405180910390a46123ff60008383611eae565b5050565b6040518060600160405280600390602082028036833780820191505090505090565b82805461243190612d36565b90600052602060002090601f016020900481019282612453576000855561249a565b82601f1061246c57805160ff191683800117855561249a565b8280016001018555821561249a579182015b8281111561249957825182559160200191906001019061247e565b5b5090506124a791906124ab565b5090565b5b808211156124c45760008160009055506001016124ac565b5090565b6000604051905090565b600080fd5b600080fd5b60007fffffffff0000000000000000000000000000000000000000000000000000000082169050919050565b612511816124dc565b811461251c57600080fd5b50565b60008135905061252e81612508565b92915050565b60006020828403121561254a576125496124d2565b5b60006125588482850161251f565b91505092915050565b60008115159050919050565b61257681612561565b82525050565b6000602082019050612591600083018461256d565b92915050565b600081519050919050565b600082825260208201905092915050565b60005b838110156125d15780820151818401526020810190506125b6565b838111156125e0576000848401525b50505050565b6000601f19601f8301169050919050565b600061260282612597565b61260c81856125a2565b935061261c8185602086016125b3565b612625816125e6565b840191505092915050565b6000602082019050818103600083015261264a81846125f7565b905092915050565b6000819050919050565b61266581612652565b811461267057600080fd5b50565b6000813590506126828161265c565b92915050565b60006020828403121561269e5761269d6124d2565b5b60006126ac84828501612673565b91505092915050565b600073ffffffffffffffffffffffffffffffffffffffff82169050919050565b60006126e0826126b5565b9050919050565b6126f0816126d5565b82525050565b600060208201905061270b60008301846126e7565b92915050565b61271a816126d5565b811461272557600080fd5b50565b60008135905061273781612711565b92915050565b60008060408385031215612754576127536124d2565b5b600061276285828601612728565b925050602061277385828601612673565b9150509250929050565b61278681612652565b82525050565b60006020820190506127a1600083018461277d565b92915050565b600080fd5b7f4e487b7100000000000000000000000000000000000000000000000000000000600052604160045260246000fd5b6127e4826125e6565b810181811067ffffffffffffffff82111715612803576128026127ac565b5b80604052505050565b60006128166124c8565b905061282282826127db565b919050565b600067ffffffffffffffff821115612842576128416127ac565b5b602082029050602081019050919050565b600080fd5b600061286b61286684612827565b61280c565b9050808382526020820190506020840283018581111561288e5761288d612853565b5b835b818110156128b757806128a38882612673565b845260208401935050602081019050612890565b5050509392505050565b600082601f8301126128d6576128d56127a7565b5b81356128e6848260208601612858565b91505092915050565b60008060408385031215612906576129056124d2565b5b600061291485828601612673565b925050602083013567ffffffffffffffff811115612935576129346124d7565b5b612941858286016128c1565b9150509250929050565b600080600060608486031215612964576129636124d2565b5b600061297286828701612728565b935050602061298386828701612728565b925050604061299486828701612673565b9150509250925092565b600060039050919050565b600081905092915050565b6000819050919050565b6129c781612652565b82525050565b60006129d983836129be565b60208301905092915050565b6000602082019050919050565b6129fb8161299e565b612a0581846129a9565b9250612a10826129b4565b8060005b83811015612a41578151612a2887826129cd565b9650612a33836129e5565b925050600181019050612a14565b505050505050565b6000606082019050612a5e60008301846129f2565b92915050565b600060208284031215612a7a57612a796124d2565b5b6000612a8884828501612728565b91505092915050565b612a9a81612561565b8114612aa557600080fd5b50565b600081359050612ab781612a91565b92915050565b60008060408385031215612ad457612ad36124d2565b5b6000612ae285828601612728565b9250506020612af385828601612aa8565b9150509250929050565b7f4e487b7100000000000000000000000000000000000000000000000000000000600052602160045260246000fd5b60038110612b3d57612b3c612afd565b5b50565b6000819050612b4e82612b2c565b919050565b6000612b5e82612b40565b9050919050565b612b6e81612b53565b82525050565b6000602082019050612b896000830184612b65565b92915050565b600080fd5b600067ffffffffffffffff821115612baf57612bae6127ac565b5b612bb8826125e6565b9050602081019050919050565b82818337600083830152505050565b6000612be7612be284612b94565b61280c565b905082815260208101848484011115612c0357612c02612b8f565b5b612c0e848285612bc5565b509392505050565b600082601f830112612c2b57612c2a6127a7565b5b8135612c3b848260208601612bd4565b91505092915050565b60008060008060808587031215612c5e57612c5d6124d2565b5b6000612c6c87828801612728565b9450506020612c7d87828801612728565b9350506040612c8e87828801612673565b925050606085013567ffffffffffffffff811115612caf57612cae6124d7565b5b612cbb87828801612c16565b91505092959194509250565b60008060408385031215612cde57612cdd6124d2565b5b6000612cec85828601612728565b9250506020612cfd85828601612728565b9150509250929050565b7f4e487b7100000000000000000000000000000000000000000000000000000000600052602260045260246000fd5b60006002820490506001821680612d4e57607f821691505b60208210811415612d6257612d61612d07565b5b50919050565b7f4552433732313a20617070726f76616c20746f2063757272656e74206f776e6560008201527f7200000000000000000000000000000000000000000000000000000000000000602082015250565b6000612dc46021836125a2565b9150612dcf82612d68565b604082019050919050565b60006020820190508181036000830152612df381612db7565b9050919050565b7f4552433732313a20617070726f76652063616c6c6572206973206e6f7420746f60008201527f6b656e206f776e6572206e6f7220617070726f76656420666f7220616c6c0000602082015250565b6000612e56603e836125a2565b9150612e6182612dfa565b604082019050919050565b60006020820190508181036000830152612e8581612e49565b9050919050565b6000604082019050612ea160008301856126e7565b612eae60208301846126e7565b9392505050565b7f4552433732313a2063616c6c6572206973206e6f7420746f6b656e206f776e6560008201527f72206e6f7220617070726f766564000000000000000000000000000000000000602082015250565b6000612f11602e836125a2565b9150612f1c82612eb5565b604082019050919050565b60006020820190508181036000830152612f4081612f04565b9050919050565b7f4e487b7100000000000000000000000000000000000000000000000000000000600052603260045260246000fd5b600081905092915050565b50565b6000612f91600083612f76565b9150612f9c82612f81565b600082019050919050565b6000612fb282612f84565b9150819050919050565b7f4552433732313a20696e76616c696420746f6b656e2049440000000000000000600082015250565b6000612ff26018836125a2565b9150612ffd82612fbc565b602082019050919050565b6000602082019050818103600083015261302181612fe5565b9050919050565b7f4552433732313a2061646472657373207a65726f206973206e6f74206120766160008201527f6c6964206f776e65720000000000000000000000000000000000000000000000602082015250565b60006130846029836125a2565b915061308f82613028565b604082019050919050565b600060208201905081810360008301526130b381613077565b9050919050565b6000819050919050565b6130cd816130ba565b82525050565b600067ffffffffffffffff82169050919050565b6130f0816130d3565b82525050565b600061ffff82169050919050565b61310d816130f6565b82525050565b600063ffffffff82169050919050565b61312c81613113565b82525050565b600060a08201905061314760008301886130c4565b61315460208301876130e7565b6131616040830186613104565b61316e6060830185613123565b61317b6080830184613123565b9695505050505050565b6000815190506131948161265c565b92915050565b6000602082840312156131b0576131af6124d2565b5b60006131be84828501613185565b91505092915050565b7f4e487b7100000000000000000000000000000000000000000000000000000000600052601160045260246000fd5b600061320182612652565b915061320c83612652565b9250827fffffffffffffffffffffffffffffffffffffffffffffffffffffffffffffffff03821115613241576132406131c7565b5b828201905092915050565b600061325782612652565b91507fffffffffffffffffffffffffffffffffffffffffffffffffffffffffffffffff82141561328a576132896131c7565b5b600182019050919050565b600081905092915050565b60006132ab82612597565b6132b58185613295565b93506132c58185602086016125b3565b80840191505092915050565b60006132dd82856132a0565b91506132e982846132a0565b91508190509392505050565b7f4f776e61626c653a206e6577206f776e657220697320746865207a65726f206160008201527f6464726573730000000000000000000000000000000000000000000000000000602082015250565b60006133516026836125a2565b915061335c826132f5565b604082019050919050565b6000602082019050818103600083015261338081613344565b9050919050565b7f4e487b7100000000000000000000000000000000000000000000000000000000600052601260045260246000fd5b60006133c182612652565b91506133cc83612652565b9250826133dc576133db613387565b5b828206905092915050565b60006040820190506133fc6000830185612b65565b61340960208301846126e7565b9392505050565b7f4552433732313a207472616e736665722066726f6d20696e636f72726563742060008201527f6f776e6572000000000000000000000000000000000000000000000000000000602082015250565b600061346c6025836125a2565b915061347782613410565b604082019050919050565b6000602082019050818103600083015261349b8161345f565b9050919050565b7f4552433732313a207472616e7366657220746f20746865207a65726f2061646460008201527f7265737300000000000000000000000000000000000000000000000000000000602082015250565b60006134fe6024836125a2565b9150613509826134a2565b604082019050919050565b6000602082019050818103600083015261352d816134f1565b9050919050565b600061353f82612652565b915061354a83612652565b92508282101561355d5761355c6131c7565b5b828203905092915050565b7f4f776e61626c653a2063616c6c6572206973206e6f7420746865206f776e6572600082015250565b600061359e6020836125a2565b91506135a982613568565b602082019050919050565b600060208201905081810360008301526135cd81613591565b9050919050565b7f4552433732313a20617070726f766520746f2063616c6c657200000000000000600082015250565b600061360a6019836125a2565b9150613615826135d4565b602082019050919050565b60006020820190508181036000830152613639816135fd565b9050919050565b7f4552433732313a207472616e7366657220746f206e6f6e20455243373231526560008201527f63656976657220696d706c656d656e7465720000000000000000000000000000602082015250565b600061369c6032836125a2565b91506136a782613640565b604082019050919050565b600060208201905081810360008301526136cb8161368f565b9050919050565b7f45524337323155524953746f726167653a2055524920736574206f66206e6f6e60008201527f6578697374656e7420746f6b656e000000000000000000000000000000000000602082015250565b600061372e602e836125a2565b9150613739826136d2565b604082019050919050565b6000602082019050818103600083015261375d81613721565b9050919050565b600081519050919050565b600082825260208201905092915050565b600061378b82613764565b613795818561376f565b93506137a58185602086016125b3565b6137ae816125e6565b840191505092915050565b60006080820190506137ce60008301876126e7565b6137db60208301866126e7565b6137e8604083018561277d565b81810360608301526137fa8184613780565b905095945050505050565b60008151905061381481612508565b92915050565b6000602082840312156138305761382f6124d2565b5b600061383e84828501613805565b91505092915050565b600061385282612652565b915061385d83612652565b92508261386d5761386c613387565b5b828204905092915050565b7f4552433732313a206d696e7420746f20746865207a65726f2061646472657373600082015250565b60006138ae6020836125a2565b91506138b982613878565b602082019050919050565b600060208201905081810360008301526138dd816138a1565b9050919050565b7f4552433732313a20746f6b656e20616c7265616479206d696e74656400000000600082015250565b600061391a601c836125a2565b9150613925826138e4565b602082019050919050565b600060208201905081810360008301526139498161390d565b905091905056fea264697066735822122097fbc732fa70bb06e909bd14d7f3b896f722c0797e532e933e2ddf0d48b13ee364736f6c63430008090033",
  "devdoc": {
    "kind": "dev",
    "methods": {
      "approve(address,uint256)": {
        "details": "See {IERC721-approve}."
      },
      "balanceOf(address)": {
        "details": "See {IERC721-balanceOf}."
      },
      "getApproved(uint256)": {
        "details": "See {IERC721-getApproved}."
      },
      "isApprovedForAll(address,address)": {
        "details": "See {IERC721-isApprovedForAll}."
      },
      "name()": {
        "details": "See {IERC721Metadata-name}."
      },
      "owner()": {
        "details": "Returns the address of the current owner."
      },
      "ownerOf(uint256)": {
        "details": "See {IERC721-ownerOf}."
      },
      "renounceOwnership()": {
        "details": "Leaves the contract without owner. It will not be possible to call `onlyOwner` functions anymore. Can only be called by the current owner. NOTE: Renouncing ownership will leave the contract without an owner, thereby removing any functionality that is only available to the owner."
      },
      "safeTransferFrom(address,address,uint256)": {
        "details": "See {IERC721-safeTransferFrom}."
      },
      "safeTransferFrom(address,address,uint256,bytes)": {
        "details": "See {IERC721-safeTransferFrom}."
      },
      "setApprovalForAll(address,bool)": {
        "details": "See {IERC721-setApprovalForAll}."
      },
      "supportsInterface(bytes4)": {
        "details": "See {IERC165-supportsInterface}."
      },
      "symbol()": {
        "details": "See {IERC721Metadata-symbol}."
      },
      "tokenURI(uint256)": {
        "details": "See {IERC721Metadata-tokenURI}."
      },
      "transferFrom(address,address,uint256)": {
        "details": "See {IERC721-transferFrom}."
      },
      "transferOwnership(address)": {
        "details": "Transfers ownership of the contract to a new account (`newOwner`). Can only be called by the current owner."
      }
    },
    "version": 1
  },
  "userdoc": {
    "kind": "user",
    "methods": {},
    "version": 1
  },
  "storageLayout": {
    "storage": [
      {
        "astId": 292,
        "contract": "contracts/RandomIPFSnft.sol:RandomIPFSnft",
        "label": "_name",
        "offset": 0,
        "slot": "0",
        "type": "t_string_storage"
      },
      {
        "astId": 294,
        "contract": "contracts/RandomIPFSnft.sol:RandomIPFSnft",
        "label": "_symbol",
        "offset": 0,
        "slot": "1",
        "type": "t_string_storage"
      },
      {
        "astId": 298,
        "contract": "contracts/RandomIPFSnft.sol:RandomIPFSnft",
        "label": "_owners",
        "offset": 0,
        "slot": "2",
        "type": "t_mapping(t_uint256,t_address)"
      },
      {
        "astId": 302,
        "contract": "contracts/RandomIPFSnft.sol:RandomIPFSnft",
        "label": "_balances",
        "offset": 0,
        "slot": "3",
        "type": "t_mapping(t_address,t_uint256)"
      },
      {
        "astId": 306,
        "contract": "contracts/RandomIPFSnft.sol:RandomIPFSnft",
        "label": "_tokenApprovals",
        "offset": 0,
        "slot": "4",
        "type": "t_mapping(t_uint256,t_address)"
      },
      {
        "astId": 312,
        "contract": "contracts/RandomIPFSnft.sol:RandomIPFSnft",
        "label": "_operatorApprovals",
        "offset": 0,
        "slot": "5",
        "type": "t_mapping(t_address,t_mapping(t_address,t_bool))"
      },
      {
        "astId": 1280,
        "contract": "contracts/RandomIPFSnft.sol:RandomIPFSnft",
        "label": "_tokenURIs",
        "offset": 0,
        "slot": "6",
        "type": "t_mapping(t_uint256,t_string_storage)"
      },
      {
        "astId": 161,
        "contract": "contracts/RandomIPFSnft.sol:RandomIPFSnft",
        "label": "_owner",
        "offset": 0,
        "slot": "7",
        "type": "t_address"
      },
      {
        "astId": 2039,
        "contract": "contracts/RandomIPFSnft.sol:RandomIPFSnft",
        "label": "s_requestIdToSender",
        "offset": 0,
        "slot": "8",
        "type": "t_mapping(t_uint256,t_address)"
      },
      {
        "astId": 2041,
        "contract": "contracts/RandomIPFSnft.sol:RandomIPFSnft",
        "label": "s_tokenCounter",
        "offset": 0,
        "slot": "9",
        "type": "t_uint256"
      },
      {
        "astId": 2047,
        "contract": "contracts/RandomIPFSnft.sol:RandomIPFSnft",
        "label": "s_dogTokenUris",
        "offset": 0,
        "slot": "10",
        "type": "t_array(t_string_storage)dyn_storage"
      }
    ],
    "types": {
      "t_address": {
        "encoding": "inplace",
        "label": "address",
        "numberOfBytes": "20"
      },
      "t_array(t_string_storage)dyn_storage": {
        "base": "t_string_storage",
        "encoding": "dynamic_array",
        "label": "string[]",
        "numberOfBytes": "32"
      },
      "t_bool": {
        "encoding": "inplace",
        "label": "bool",
        "numberOfBytes": "1"
      },
      "t_mapping(t_address,t_bool)": {
        "encoding": "mapping",
        "key": "t_address",
        "label": "mapping(address => bool)",
        "numberOfBytes": "32",
        "value": "t_bool"
      },
      "t_mapping(t_address,t_mapping(t_address,t_bool))": {
        "encoding": "mapping",
        "key": "t_address",
        "label": "mapping(address => mapping(address => bool))",
        "numberOfBytes": "32",
        "value": "t_mapping(t_address,t_bool)"
      },
      "t_mapping(t_address,t_uint256)": {
        "encoding": "mapping",
        "key": "t_address",
        "label": "mapping(address => uint256)",
        "numberOfBytes": "32",
        "value": "t_uint256"
      },
      "t_mapping(t_uint256,t_address)": {
        "encoding": "mapping",
        "key": "t_uint256",
        "label": "mapping(uint256 => address)",
        "numberOfBytes": "32",
        "value": "t_address"
      },
      "t_mapping(t_uint256,t_string_storage)": {
        "encoding": "mapping",
        "key": "t_uint256",
        "label": "mapping(uint256 => string)",
        "numberOfBytes": "32",
        "value": "t_string_storage"
      },
      "t_string_storage": {
        "encoding": "bytes",
        "label": "string",
        "numberOfBytes": "32"
      },
      "t_uint256": {
        "encoding": "inplace",
        "label": "uint256",
        "numberOfBytes": "32"
      }
    }
  }
}